{
  "contractName": "CryptoLand",
  "abi": [
    {
      "constant": true,
      "inputs": [
        {
          "name": "interfaceId",
          "type": "bytes4"
        }
      ],
      "name": "supportsInterface",
      "outputs": [
        {
          "name": "",
          "type": "bool"
        }
      ],
      "payable": false,
      "stateMutability": "view",
      "type": "function"
    },
    {
      "constant": true,
      "inputs": [],
      "name": "name",
      "outputs": [
        {
          "name": "",
          "type": "string"
        }
      ],
      "payable": false,
      "stateMutability": "view",
      "type": "function"
    },
    {
      "constant": true,
      "inputs": [
        {
          "name": "tokenId",
          "type": "uint256"
        }
      ],
      "name": "getApproved",
      "outputs": [
        {
          "name": "",
          "type": "address"
        }
      ],
      "payable": false,
      "stateMutability": "view",
      "type": "function"
    },
    {
      "constant": false,
      "inputs": [
        {
          "name": "to",
          "type": "address"
        },
        {
          "name": "tokenId",
          "type": "uint256"
        }
      ],
      "name": "approve",
      "outputs": [],
      "payable": false,
      "stateMutability": "nonpayable",
      "type": "function"
    },
    {
      "constant": true,
      "inputs": [],
      "name": "totalSupply",
      "outputs": [
        {
          "name": "",
          "type": "uint256"
        }
      ],
      "payable": false,
      "stateMutability": "view",
      "type": "function"
    },
    {
      "constant": false,
      "inputs": [
        {
          "name": "from",
          "type": "address"
        },
        {
          "name": "to",
          "type": "address"
        },
        {
          "name": "tokenId",
          "type": "uint256"
        }
      ],
      "name": "transferFrom",
      "outputs": [],
      "payable": false,
      "stateMutability": "nonpayable",
      "type": "function"
    },
    {
      "constant": true,
      "inputs": [
        {
          "name": "owner",
          "type": "address"
        },
        {
          "name": "index",
          "type": "uint256"
        }
      ],
      "name": "tokenOfOwnerByIndex",
      "outputs": [
        {
          "name": "",
          "type": "uint256"
        }
      ],
      "payable": false,
      "stateMutability": "view",
      "type": "function"
    },
    {
      "constant": false,
      "inputs": [
        {
          "name": "to",
          "type": "address"
        },
        {
          "name": "tokenId",
          "type": "uint256"
        }
      ],
      "name": "mint",
      "outputs": [
        {
          "name": "",
          "type": "bool"
        }
      ],
      "payable": false,
      "stateMutability": "nonpayable",
      "type": "function"
    },
    {
      "constant": false,
      "inputs": [
        {
          "name": "from",
          "type": "address"
        },
        {
          "name": "to",
          "type": "address"
        },
        {
          "name": "tokenId",
          "type": "uint256"
        }
      ],
      "name": "safeTransferFrom",
      "outputs": [],
      "payable": false,
      "stateMutability": "nonpayable",
      "type": "function"
    },
    {
      "constant": false,
      "inputs": [
        {
          "name": "tokenId",
          "type": "uint256"
        }
      ],
      "name": "burn",
      "outputs": [],
      "payable": false,
      "stateMutability": "nonpayable",
      "type": "function"
    },
    {
      "constant": true,
      "inputs": [
        {
          "name": "index",
          "type": "uint256"
        }
      ],
      "name": "tokenByIndex",
      "outputs": [
        {
          "name": "",
          "type": "uint256"
        }
      ],
      "payable": false,
      "stateMutability": "view",
      "type": "function"
    },
    {
      "constant": false,
      "inputs": [
        {
          "name": "to",
          "type": "address"
        },
        {
          "name": "tokenId",
          "type": "uint256"
        },
        {
          "name": "tokenURI",
          "type": "string"
        }
      ],
      "name": "mintWithTokenURI",
      "outputs": [
        {
          "name": "",
          "type": "bool"
        }
      ],
      "payable": false,
      "stateMutability": "nonpayable",
      "type": "function"
    },
    {
      "constant": true,
      "inputs": [
        {
          "name": "tokenId",
          "type": "uint256"
        }
      ],
      "name": "ownerOf",
      "outputs": [
        {
          "name": "",
          "type": "address"
        }
      ],
      "payable": false,
      "stateMutability": "view",
      "type": "function"
    },
    {
      "constant": true,
      "inputs": [
        {
          "name": "owner",
          "type": "address"
        }
      ],
      "name": "balanceOf",
      "outputs": [
        {
          "name": "",
          "type": "uint256"
        }
      ],
      "payable": false,
      "stateMutability": "view",
      "type": "function"
    },
    {
      "constant": false,
      "inputs": [],
      "name": "renounceOwnership",
      "outputs": [],
      "payable": false,
      "stateMutability": "nonpayable",
      "type": "function"
    },
    {
      "constant": true,
      "inputs": [],
      "name": "owner",
      "outputs": [
        {
          "name": "",
          "type": "address"
        }
      ],
      "payable": false,
      "stateMutability": "view",
      "type": "function"
    },
    {
      "constant": true,
      "inputs": [],
      "name": "isOwner",
      "outputs": [
        {
          "name": "",
          "type": "bool"
        }
      ],
      "payable": false,
      "stateMutability": "view",
      "type": "function"
    },
    {
      "constant": true,
      "inputs": [],
      "name": "symbol",
      "outputs": [
        {
          "name": "",
          "type": "string"
        }
      ],
      "payable": false,
      "stateMutability": "view",
      "type": "function"
    },
    {
      "constant": false,
      "inputs": [
        {
          "name": "account",
          "type": "address"
        }
      ],
      "name": "addMinter",
      "outputs": [],
      "payable": false,
      "stateMutability": "nonpayable",
      "type": "function"
    },
    {
      "constant": false,
      "inputs": [],
      "name": "renounceMinter",
      "outputs": [],
      "payable": false,
      "stateMutability": "nonpayable",
      "type": "function"
    },
    {
      "constant": false,
      "inputs": [
        {
          "name": "to",
          "type": "address"
        },
        {
          "name": "approved",
          "type": "bool"
        }
      ],
      "name": "setApprovalForAll",
      "outputs": [],
      "payable": false,
      "stateMutability": "nonpayable",
      "type": "function"
    },
    {
      "constant": true,
      "inputs": [
        {
          "name": "account",
          "type": "address"
        }
      ],
      "name": "isMinter",
      "outputs": [
        {
          "name": "",
          "type": "bool"
        }
      ],
      "payable": false,
      "stateMutability": "view",
      "type": "function"
    },
    {
      "constant": false,
      "inputs": [
        {
          "name": "from",
          "type": "address"
        },
        {
          "name": "to",
          "type": "address"
        },
        {
          "name": "tokenId",
          "type": "uint256"
        },
        {
          "name": "_data",
          "type": "bytes"
        }
      ],
      "name": "safeTransferFrom",
      "outputs": [],
      "payable": false,
      "stateMutability": "nonpayable",
      "type": "function"
    },
    {
      "constant": true,
      "inputs": [
        {
          "name": "tokenId",
          "type": "uint256"
        }
      ],
      "name": "tokenURI",
      "outputs": [
        {
          "name": "",
          "type": "string"
        }
      ],
      "payable": false,
      "stateMutability": "view",
      "type": "function"
    },
    {
      "constant": true,
      "inputs": [
        {
          "name": "owner",
          "type": "address"
        },
        {
          "name": "operator",
          "type": "address"
        }
      ],
      "name": "isApprovedForAll",
      "outputs": [
        {
          "name": "",
          "type": "bool"
        }
      ],
      "payable": false,
      "stateMutability": "view",
      "type": "function"
    },
    {
      "constant": false,
      "inputs": [
        {
          "name": "newOwner",
          "type": "address"
        }
      ],
      "name": "transferOwnership",
      "outputs": [],
      "payable": false,
      "stateMutability": "nonpayable",
      "type": "function"
    },
    {
      "inputs": [],
      "payable": false,
      "stateMutability": "nonpayable",
      "type": "constructor"
    },
    {
      "anonymous": false,
      "inputs": [
        {
          "indexed": true,
          "name": "to",
          "type": "address"
        },
        {
          "indexed": false,
          "name": "howMany",
          "type": "uint256"
        },
        {
          "indexed": false,
          "name": "tokenIdFrom",
          "type": "uint256"
        },
        {
          "indexed": false,
          "name": "tokenIdTo",
          "type": "uint256"
        }
      ],
      "name": "MintManyToken",
      "type": "event"
    },
    {
      "anonymous": false,
      "inputs": [
        {
          "indexed": true,
          "name": "previousOwner",
          "type": "address"
        },
        {
          "indexed": true,
          "name": "newOwner",
          "type": "address"
        }
      ],
      "name": "OwnershipTransferred",
      "type": "event"
    },
    {
      "anonymous": false,
      "inputs": [
        {
          "indexed": true,
          "name": "account",
          "type": "address"
        }
      ],
      "name": "MinterAdded",
      "type": "event"
    },
    {
      "anonymous": false,
      "inputs": [
        {
          "indexed": true,
          "name": "account",
          "type": "address"
        }
      ],
      "name": "MinterRemoved",
      "type": "event"
    },
    {
      "anonymous": false,
      "inputs": [
        {
          "indexed": true,
          "name": "from",
          "type": "address"
        },
        {
          "indexed": true,
          "name": "to",
          "type": "address"
        },
        {
          "indexed": true,
          "name": "tokenId",
          "type": "uint256"
        }
      ],
      "name": "Transfer",
      "type": "event"
    },
    {
      "anonymous": false,
      "inputs": [
        {
          "indexed": true,
          "name": "owner",
          "type": "address"
        },
        {
          "indexed": true,
          "name": "approved",
          "type": "address"
        },
        {
          "indexed": true,
          "name": "tokenId",
          "type": "uint256"
        }
      ],
      "name": "Approval",
      "type": "event"
    },
    {
      "anonymous": false,
      "inputs": [
        {
          "indexed": true,
          "name": "owner",
          "type": "address"
        },
        {
          "indexed": true,
          "name": "operator",
          "type": "address"
        },
        {
          "indexed": false,
          "name": "approved",
          "type": "bool"
        }
      ],
      "name": "ApprovalForAll",
      "type": "event"
    },
    {
      "constant": false,
      "inputs": [
        {
          "name": "to",
          "type": "address"
        },
        {
          "name": "howMany",
          "type": "uint256"
        },
        {
          "name": "tokenURI",
          "type": "string"
        }
      ],
      "name": "mintManyWithTokenUri",
      "outputs": [
        {
          "name": "",
          "type": "bool"
        }
      ],
      "payable": false,
      "stateMutability": "nonpayable",
      "type": "function"
    },
    {
      "constant": true,
      "inputs": [
        {
          "name": "_a",
          "type": "string"
        },
        {
          "name": "_b",
          "type": "string"
        }
      ],
      "name": "concat",
      "outputs": [
        {
          "name": "",
          "type": "string"
        }
      ],
      "payable": false,
      "stateMutability": "view",
      "type": "function"
    },
    {
      "constant": true,
      "inputs": [
        {
          "name": "v",
          "type": "uint256"
        }
      ],
      "name": "uintToString",
      "outputs": [
        {
          "name": "",
          "type": "string"
        }
      ],
      "payable": false,
      "stateMutability": "view",
      "type": "function"
    },
    {
      "constant": false,
      "inputs": [
        {
          "name": "tokenId",
          "type": "uint256"
        },
        {
          "name": "uri",
          "type": "string"
        }
      ],
      "name": "setTokenURI",
      "outputs": [
        {
          "name": "",
          "type": "bool"
        }
      ],
      "payable": false,
      "stateMutability": "nonpayable",
      "type": "function"
    }
  ],
  "bytecode": "0x60806040523480156200001157600080fd5b506040805190810160405280600d81526020017f43727970746f4c616e642e6767000000000000000000000000000000000000008152506040805190810160405280600281526020017f434c0000000000000000000000000000000000000000000000000000000000008152508181620000bd6301ffc9a77c01000000000000000000000000000000000000000000000000000000000262000288640100000000026401000000009004565b620000fa6380ac58cd7c01000000000000000000000000000000000000000000000000000000000262000288640100000000026401000000009004565b6200013763780e9d637c01000000000000000000000000000000000000000000000000000000000262000288640100000000026401000000009004565b81600990805190602001906200014f92919062000508565b5080600a90805190602001906200016892919062000508565b50620001a6635b5e139f7c01000000000000000000000000000000000000000000000000000000000262000288640100000000026401000000009004565b50505050620001c43362000346640100000000026401000000009004565b33600d60006101000a81548173ffffffffffffffffffffffffffffffffffffffff021916908373ffffffffffffffffffffffffffffffffffffffff160217905550600d60009054906101000a900473ffffffffffffffffffffffffffffffffffffffff1673ffffffffffffffffffffffffffffffffffffffff16600073ffffffffffffffffffffffffffffffffffffffff167f8be0079c531659141344cd1fd0a4f28419497f9722a3daafe3b4186f6b6457e060405160405180910390a3620005b7565b63ffffffff7c010000000000000000000000000000000000000000000000000000000002817bffffffffffffffffffffffffffffffffffffffffffffffffffffffff191614151515620002da57600080fd5b6001600080837bffffffffffffffffffffffffffffffffffffffffffffffffffffffff19167bffffffffffffffffffffffffffffffffffffffffffffffffffffffff1916815260200190815260200160002060006101000a81548160ff02191690831515021790555050565b6200036a81600c620003b06401000000000262002bf4179091906401000000009004565b8073ffffffffffffffffffffffffffffffffffffffff167f6ae172837ea30b801fbfcdd4108aa1d5bf8ff775444fd70256b44e6bf3dfc3f660405160405180910390a250565b600073ffffffffffffffffffffffffffffffffffffffff168173ffffffffffffffffffffffffffffffffffffffff1614151515620003ed57600080fd5b62000408828262000473640100000000026401000000009004565b1515156200041557600080fd5b60018260000160008373ffffffffffffffffffffffffffffffffffffffff1673ffffffffffffffffffffffffffffffffffffffff16815260200190815260200160002060006101000a81548160ff0219169083151502179055505050565b60008073ffffffffffffffffffffffffffffffffffffffff168273ffffffffffffffffffffffffffffffffffffffff1614151515620004b157600080fd5b8260000160008373ffffffffffffffffffffffffffffffffffffffff1673ffffffffffffffffffffffffffffffffffffffff16815260200190815260200160002060009054906101000a900460ff16905092915050565b828054600181600116156101000203166002900490600052602060002090601f016020900481019282601f106200054b57805160ff19168380011785556200057c565b828001600101855582156200057c579182015b828111156200057b5782518255916020019190600101906200055e565b5b5090506200058b91906200058f565b5090565b620005b491905b80821115620005b057600081600090555060010162000596565b5090565b90565b612f4080620005c76000396000f300608060405260043610610180576000357c0100000000000000000000000000000000000000000000000000000000900463ffffffff16806301ffc9a71461018557806306fdde03146101e9578063081812fc14610279578063095ea7b3146102e6578063162094c41461033357806318160ddd146103be57806323b872dd146103e95780632c766cc6146104565780632f745c591461050157806340c10f191461056257806342842e0e146105c757806342966c68146106345780634f6ccce71461066157806350bb4e7f146106a25780636352211e1461074d57806370a08231146107ba578063715018a61461081157806389c19ddb146108285780638da5cb5b146109505780638f32d59b146109a757806395d89b41146109d6578063983b2d5614610a665780639865027514610aa9578063a22cb46514610ac0578063aa271e1a14610b0f578063b88d4fde14610b6a578063c87b56dd14610c1d578063e939567914610cc3578063e985e9c514610d69578063f2fde38b14610de4575b600080fd5b34801561019157600080fd5b506101cf60048036038101908080357bffffffffffffffffffffffffffffffffffffffffffffffffffffffff19169060200190929190505050610e27565b604051808215151515815260200191505060405180910390f35b3480156101f557600080fd5b506101fe610e8e565b6040518080602001828103825283818151815260200191508051906020019080838360005b8381101561023e578082015181840152602081019050610223565b50505050905090810190601f16801561026b5780820380516001836020036101000a031916815260200191505b509250505060405180910390f35b34801561028557600080fd5b506102a460048036038101908080359060200190929190505050610f30565b604051808273ffffffffffffffffffffffffffffffffffffffff1673ffffffffffffffffffffffffffffffffffffffff16815260200191505060405180910390f35b3480156102f257600080fd5b50610331600480360381019080803573ffffffffffffffffffffffffffffffffffffffff16906020019092919080359060200190929190505050610f81565b005b34801561033f57600080fd5b506103a460048036038101908080359060200190929190803590602001908201803590602001908080601f01602080910402602001604051908101604052809392919081815260200183838082843782019150505050505091929192905050506110c6565b604051808215151515815260200191505060405180910390f35b3480156103ca57600080fd5b506103d36110f0565b6040518082815260200191505060405180910390f35b3480156103f557600080fd5b50610454600480360381019080803573ffffffffffffffffffffffffffffffffffffffff169060200190929190803573ffffffffffffffffffffffffffffffffffffffff169060200190929190803590602001909291905050506110fd565b005b34801561046257600080fd5b506104e7600480360381019080803573ffffffffffffffffffffffffffffffffffffffff16906020019092919080359060200190929190803590602001908201803590602001908080601f01602080910402602001604051908101604052809392919081815260200183838082843782019150505050505091929192905050506111cc565b604051808215151515815260200191505060405180910390f35b34801561050d57600080fd5b5061054c600480360381019080803573ffffffffffffffffffffffffffffffffffffffff1690602001909291908035906020019092919050505061129a565b6040518082815260200191505060405180910390f35b34801561056e57600080fd5b506105ad600480360381019080803573ffffffffffffffffffffffffffffffffffffffff16906020019092919080359060200190929190505050611311565b604051808215151515815260200191505060405180910390f35b3480156105d357600080fd5b50610632600480360381019080803573ffffffffffffffffffffffffffffffffffffffff169060200190929190803573ffffffffffffffffffffffffffffffffffffffff1690602001909291908035906020019092919050505061133b565b005b34801561064057600080fd5b5061065f6004803603810190808035906020019092919050505061135c565b005b34801561066d57600080fd5b5061068c60048036038101908080359060200190929190505050611386565b6040518082815260200191505060405180910390f35b3480156106ae57600080fd5b50610733600480360381019080803573ffffffffffffffffffffffffffffffffffffffff16906020019092919080359060200190929190803590602001908201803590602001908080601f01602080910402602001604051908101604052809392919081815260200183838082843782019150505050505091929192905050506113be565b604051808215151515815260200191505060405180910390f35b34801561075957600080fd5b50610778600480360381019080803590602001909291905050506113f3565b604051808273ffffffffffffffffffffffffffffffffffffffff1673ffffffffffffffffffffffffffffffffffffffff16815260200191505060405180910390f35b3480156107c657600080fd5b506107fb600480360381019080803573ffffffffffffffffffffffffffffffffffffffff169060200190929190505050611471565b6040518082815260200191505060405180910390f35b34801561081d57600080fd5b506108266114f5565b005b34801561083457600080fd5b506108d5600480360381019080803590602001908201803590602001908080601f0160208091040260200160405190810160405280939291908181526020018383808284378201915050505050509192919290803590602001908201803590602001908080601f01602080910402602001604051908101604052809392919081815260200183838082843782019150505050505091929192905050506115c9565b6040518080602001828103825283818151815260200191508051906020019080838360005b838110156109155780820151818401526020810190506108fa565b50505050905090810190601f1680156109425780820380516001836020036101000a031916815260200191505b509250505060405180910390f35b34801561095c57600080fd5b5061096561179a565b604051808273ffffffffffffffffffffffffffffffffffffffff1673ffffffffffffffffffffffffffffffffffffffff16815260200191505060405180910390f35b3480156109b357600080fd5b506109bc6117c4565b604051808215151515815260200191505060405180910390f35b3480156109e257600080fd5b506109eb61181c565b6040518080602001828103825283818151815260200191508051906020019080838360005b83811015610a2b578082015181840152602081019050610a10565b50505050905090810190601f168015610a585780820380516001836020036101000a031916815260200191505b509250505060405180910390f35b348015610a7257600080fd5b50610aa7600480360381019080803573ffffffffffffffffffffffffffffffffffffffff1690602001909291905050506118be565b005b348015610ab557600080fd5b50610abe6118de565b005b348015610acc57600080fd5b50610b0d600480360381019080803573ffffffffffffffffffffffffffffffffffffffff1690602001909291908035151590602001909291905050506118e9565b005b348015610b1b57600080fd5b50610b50600480360381019080803573ffffffffffffffffffffffffffffffffffffffff169060200190929190505050611a25565b604051808215151515815260200191505060405180910390f35b348015610b7657600080fd5b50610c1b600480360381019080803573ffffffffffffffffffffffffffffffffffffffff169060200190929190803573ffffffffffffffffffffffffffffffffffffffff16906020019092919080359060200190929190803590602001908201803590602001908080601f0160208091040260200160405190810160405280939291908181526020018383808284378201915050505050509192919290505050611a42565b005b348015610c2957600080fd5b50610c4860048036038101908080359060200190929190505050611a6a565b6040518080602001828103825283818151815260200191508051906020019080838360005b83811015610c88578082015181840152602081019050610c6d565b50505050905090810190601f168015610cb55780820380516001836020036101000a031916815260200191505b509250505060405180910390f35b348015610ccf57600080fd5b50610cee60048036038101908080359060200190929190505050611b33565b6040518080602001828103825283818151815260200191508051906020019080838360005b83811015610d2e578082015181840152602081019050610d13565b50505050905090810190601f168015610d5b5780820380516001836020036101000a031916815260200191505b509250505060405180910390f35b348015610d7557600080fd5b50610dca600480360381019080803573ffffffffffffffffffffffffffffffffffffffff169060200190929190803573ffffffffffffffffffffffffffffffffffffffff169060200190929190505050611d11565b604051808215151515815260200191505060405180910390f35b348015610df057600080fd5b50610e25600480360381019080803573ffffffffffffffffffffffffffffffffffffffff169060200190929190505050611da5565b005b6000806000837bffffffffffffffffffffffffffffffffffffffffffffffffffffffff19167bffffffffffffffffffffffffffffffffffffffffffffffffffffffff1916815260200190815260200160002060009054906101000a900460ff169050919050565b606060098054600181600116156101000203166002900480601f016020809104026020016040519081016040528092919081815260200182805460018160011615610100020316600290048015610f265780601f10610efb57610100808354040283529160200191610f26565b820191906000526020600020905b815481529060010190602001808311610f0957829003601f168201915b5050505050905090565b6000610f3b82611dc4565b1515610f4657600080fd5b6002600083815260200190815260200160002060009054906101000a900473ffffffffffffffffffffffffffffffffffffffff169050919050565b6000610f8c826113f3565b90508073ffffffffffffffffffffffffffffffffffffffff168373ffffffffffffffffffffffffffffffffffffffff1614151515610fc957600080fd5b8073ffffffffffffffffffffffffffffffffffffffff163373ffffffffffffffffffffffffffffffffffffffff16148061100957506110088133611d11565b5b151561101457600080fd5b826002600084815260200190815260200160002060006101000a81548173ffffffffffffffffffffffffffffffffffffffff021916908373ffffffffffffffffffffffffffffffffffffffff160217905550818373ffffffffffffffffffffffffffffffffffffffff168273ffffffffffffffffffffffffffffffffffffffff167f8c5be1e5ebec7d5bd14f71427d1e84f3dd0314c0f7b2291e5b200ac8c7c3b92560405160405180910390a4505050565b60006110d133611a25565b15156110dc57600080fd5b6110e68383611e36565b6001905092915050565b6000600780549050905090565b6111073382611e76565b151561111257600080fd5b600073ffffffffffffffffffffffffffffffffffffffff168273ffffffffffffffffffffffffffffffffffffffff161415151561114e57600080fd5b6111588382611f0b565b611162838261200e565b61116c82826121ca565b808273ffffffffffffffffffffffffffffffffffffffff168473ffffffffffffffffffffffffffffffffffffffff167fddf252ad1be2c89b69c2b068fc378daa952ba7f163c4a11628f55a4df523b3ef60405160405180910390a4505050565b60008060006111da33611a25565b15156111e557600080fd5b6111ed6110f0565b91508190505b81850181101561122f5761120786826122a1565b6112228161121d8661121885611b33565b6115c9565b611e36565b80806001019150506111f3565b8573ffffffffffffffffffffffffffffffffffffffff167ffc0b4f7b03fc25c22b938c427af1799b1094c32a347cf5686d2686b65062aabe86848460405180848152602001838152602001828152602001935050505060405180910390a26001925050509392505050565b60006112a583611471565b821015156112b257600080fd5b600560008473ffffffffffffffffffffffffffffffffffffffff1673ffffffffffffffffffffffffffffffffffffffff168152602001908152602001600020828154811015156112fe57fe5b9060005260206000200154905092915050565b600061131c33611a25565b151561132757600080fd5b61133183836122a1565b6001905092915050565b6113578383836020604051908101604052806000815250611a42565b505050565b6113663382611e76565b151561137157600080fd5b61138361137d826113f3565b826122f8565b50565b60006113906110f0565b8210151561139d57600080fd5b6007828154811015156113ac57fe5b90600052602060002001549050919050565b60006113c933611a25565b15156113d457600080fd5b6113de84846122a1565b6113e88383611e36565b600190509392505050565b6000806001600084815260200190815260200160002060009054906101000a900473ffffffffffffffffffffffffffffffffffffffff169050600073ffffffffffffffffffffffffffffffffffffffff168173ffffffffffffffffffffffffffffffffffffffff161415151561146857600080fd5b80915050919050565b60008073ffffffffffffffffffffffffffffffffffffffff168273ffffffffffffffffffffffffffffffffffffffff16141515156114ae57600080fd5b600360008373ffffffffffffffffffffffffffffffffffffffff1673ffffffffffffffffffffffffffffffffffffffff168152602001908152602001600020549050919050565b6114fd6117c4565b151561150857600080fd5b600073ffffffffffffffffffffffffffffffffffffffff16600d60009054906101000a900473ffffffffffffffffffffffffffffffffffffffff1673ffffffffffffffffffffffffffffffffffffffff167f8be0079c531659141344cd1fd0a4f28419497f9722a3daafe3b4186f6b6457e060405160405180910390a36000600d60006101000a81548173ffffffffffffffffffffffffffffffffffffffff021916908373ffffffffffffffffffffffffffffffffffffffff160217905550565b606080606080606060008088955087945084518651016040519080825280601f01601f1916602001820160405280156116115781602001602082028038833980820191505090505b50935083925060009150600090505b85518110156116d357858181518110151561163757fe5b9060200101517f010000000000000000000000000000000000000000000000000000000000000090047f010000000000000000000000000000000000000000000000000000000000000002838380600101945081518110151561169657fe5b9060200101907effffffffffffffffffffffffffffffffffffffffffffffffffffffffffffff1916908160001a9053508080600101915050611620565b600090505b845181101561178b5784818151811015156116ef57fe5b9060200101517f010000000000000000000000000000000000000000000000000000000000000090047f010000000000000000000000000000000000000000000000000000000000000002838380600101945081518110151561174e57fe5b9060200101907effffffffffffffffffffffffffffffffffffffffffffffffffffffffffffff1916908160001a90535080806001019150506116d8565b82965050505050505092915050565b6000600d60009054906101000a900473ffffffffffffffffffffffffffffffffffffffff16905090565b6000600d60009054906101000a900473ffffffffffffffffffffffffffffffffffffffff1673ffffffffffffffffffffffffffffffffffffffff163373ffffffffffffffffffffffffffffffffffffffff1614905090565b6060600a8054600181600116156101000203166002900480601f0160208091040260200160405190810160405280929190818152602001828054600181600116156101000203166002900480156118b45780601f10611889576101008083540402835291602001916118b4565b820191906000526020600020905b81548152906001019060200180831161189757829003601f168201915b5050505050905090565b6118c733611a25565b15156118d257600080fd5b6118db81612357565b50565b6118e7336123b1565b565b3373ffffffffffffffffffffffffffffffffffffffff168273ffffffffffffffffffffffffffffffffffffffff161415151561192457600080fd5b80600460003373ffffffffffffffffffffffffffffffffffffffff1673ffffffffffffffffffffffffffffffffffffffff16815260200190815260200160002060008473ffffffffffffffffffffffffffffffffffffffff1673ffffffffffffffffffffffffffffffffffffffff16815260200190815260200160002060006101000a81548160ff0219169083151502179055508173ffffffffffffffffffffffffffffffffffffffff163373ffffffffffffffffffffffffffffffffffffffff167f17307eab39ab6107e8899845ad3d59bd9653f200f220920489ca2b5937696c3183604051808215151515815260200191505060405180910390a35050565b6000611a3b82600c61240b90919063ffffffff16565b9050919050565b611a4d8484846110fd565b611a598484848461249f565b1515611a6457600080fd5b50505050565b6060611a7582611dc4565b1515611a8057600080fd5b600b60008381526020019081526020016000208054600181600116156101000203166002900480601f016020809104026020016040519081016040528092919081815260200182805460018160011615610100020316600290048015611b275780601f10611afc57610100808354040283529160200191611b27565b820191906000526020600020905b815481529060010190602001808311611b0a57829003601f168201915b50505050509050919050565b6060600060606000806060600060649550856040519080825280601f01601f191660200182016040528015611b775781602001602082028038833980820191505090505b509450600093505b600088141515611c1657600a88811515611b9557fe5b069250600a88811515611ba457fe5b049750826030017f0100000000000000000000000000000000000000000000000000000000000000028585806001019650815181101515611be157fe5b9060200101907effffffffffffffffffffffffffffffffffffffffffffffffffffffffffffff1916908160001a905350611b7f565b600184016040519080825280601f01601f191660200182016040528015611c4c5781602001602082028038833980820191505090505b509150600090505b8381111515611d035784818503815181101515611c6d57fe5b9060200101517f010000000000000000000000000000000000000000000000000000000000000090047f0100000000000000000000000000000000000000000000000000000000000000028282815181101515611cc657fe5b9060200101907effffffffffffffffffffffffffffffffffffffffffffffffffffffffffffff1916908160001a9053508080600101915050611c54565b819650505050505050919050565b6000600460008473ffffffffffffffffffffffffffffffffffffffff1673ffffffffffffffffffffffffffffffffffffffff16815260200190815260200160002060008373ffffffffffffffffffffffffffffffffffffffff1673ffffffffffffffffffffffffffffffffffffffff16815260200190815260200160002060009054906101000a900460ff16905092915050565b611dad6117c4565b1515611db857600080fd5b611dc1816126c1565b50565b6000806001600084815260200190815260200160002060009054906101000a900473ffffffffffffffffffffffffffffffffffffffff169050600073ffffffffffffffffffffffffffffffffffffffff168173ffffffffffffffffffffffffffffffffffffffff161415915050919050565b611e3f82611dc4565b1515611e4a57600080fd5b80600b60008481526020019081526020016000209080519060200190611e71929190612dfb565b505050565b600080611e82836113f3565b90508073ffffffffffffffffffffffffffffffffffffffff168473ffffffffffffffffffffffffffffffffffffffff161480611ef157508373ffffffffffffffffffffffffffffffffffffffff16611ed984610f30565b73ffffffffffffffffffffffffffffffffffffffff16145b80611f025750611f018185611d11565b5b91505092915050565b8173ffffffffffffffffffffffffffffffffffffffff16611f2b826113f3565b73ffffffffffffffffffffffffffffffffffffffff16141515611f4d57600080fd5b600073ffffffffffffffffffffffffffffffffffffffff166002600083815260200190815260200160002060009054906101000a900473ffffffffffffffffffffffffffffffffffffffff1673ffffffffffffffffffffffffffffffffffffffff1614151561200a5760006002600083815260200190815260200160002060006101000a81548173ffffffffffffffffffffffffffffffffffffffff021916908373ffffffffffffffffffffffffffffffffffffffff1602179055505b5050565b600080600061201d85856127bd565b600660008581526020019081526020016000205492506120896001600560008873ffffffffffffffffffffffffffffffffffffffff1673ffffffffffffffffffffffffffffffffffffffff168152602001908152602001600020805490506128ec90919063ffffffff16565b9150600560008673ffffffffffffffffffffffffffffffffffffffff1673ffffffffffffffffffffffffffffffffffffffff168152602001908152602001600020828154811015156120d757fe5b9060005260206000200154905080600560008773ffffffffffffffffffffffffffffffffffffffff1673ffffffffffffffffffffffffffffffffffffffff1681526020019081526020016000208481548110151561213157fe5b9060005260206000200181905550600560008673ffffffffffffffffffffffffffffffffffffffff1673ffffffffffffffffffffffffffffffffffffffff1681526020019081526020016000208054809190600190036121919190612e7b565b50600060066000868152602001908152602001600020819055508260066000838152602001908152602001600020819055505050505050565b60006121d6838361290d565b600560008473ffffffffffffffffffffffffffffffffffffffff1673ffffffffffffffffffffffffffffffffffffffff168152602001908152602001600020805490509050600560008473ffffffffffffffffffffffffffffffffffffffff1673ffffffffffffffffffffffffffffffffffffffff168152602001908152602001600020829080600181540180825580915050906001820390600052602060002001600090919290919091505550806006600084815260200190815260200160002081905550505050565b6122ab8282612a67565b600780549050600860008381526020019081526020016000208190555060078190806001815401808255809150509060018203906000526020600020016000909192909190915055505050565b6123028282612b0d565b6000600b600083815260200190815260200160002080546001816001161561010002031660029004905014151561235357600b600082815260200190815260200160002060006123529190612ea7565b5b5050565b61236b81600c612bf490919063ffffffff16565b8073ffffffffffffffffffffffffffffffffffffffff167f6ae172837ea30b801fbfcdd4108aa1d5bf8ff775444fd70256b44e6bf3dfc3f660405160405180910390a250565b6123c581600c612ca490919063ffffffff16565b8073ffffffffffffffffffffffffffffffffffffffff167fe94479a9f7e1952cc78f2d6baab678adc1b772d936c6583def489e524cb6669260405160405180910390a250565b60008073ffffffffffffffffffffffffffffffffffffffff168273ffffffffffffffffffffffffffffffffffffffff161415151561244857600080fd5b8260000160008373ffffffffffffffffffffffffffffffffffffffff1673ffffffffffffffffffffffffffffffffffffffff16815260200190815260200160002060009054906101000a900460ff16905092915050565b6000806124c18573ffffffffffffffffffffffffffffffffffffffff16612d53565b15156124d057600191506126b8565b8473ffffffffffffffffffffffffffffffffffffffff1663150b7a02338887876040518563ffffffff167c0100000000000000000000000000000000000000000000000000000000028152600401808573ffffffffffffffffffffffffffffffffffffffff1673ffffffffffffffffffffffffffffffffffffffff1681526020018473ffffffffffffffffffffffffffffffffffffffff1673ffffffffffffffffffffffffffffffffffffffff16815260200183815260200180602001828103825283818151815260200191508051906020019080838360005b838110156125c55780820151818401526020810190506125aa565b50505050905090810190601f1680156125f25780820380516001836020036101000a031916815260200191505b5095505050505050602060405180830381600087803b15801561261457600080fd5b505af1158015612628573d6000803e3d6000fd5b505050506040513d602081101561263e57600080fd5b8101908080519060200190929190505050905063150b7a027c0100000000000000000000000000000000000000000000000000000000027bffffffffffffffffffffffffffffffffffffffffffffffffffffffff1916817bffffffffffffffffffffffffffffffffffffffffffffffffffffffff19161491505b50949350505050565b600073ffffffffffffffffffffffffffffffffffffffff168173ffffffffffffffffffffffffffffffffffffffff16141515156126fd57600080fd5b8073ffffffffffffffffffffffffffffffffffffffff16600d60009054906101000a900473ffffffffffffffffffffffffffffffffffffffff1673ffffffffffffffffffffffffffffffffffffffff167f8be0079c531659141344cd1fd0a4f28419497f9722a3daafe3b4186f6b6457e060405160405180910390a380600d60006101000a81548173ffffffffffffffffffffffffffffffffffffffff021916908373ffffffffffffffffffffffffffffffffffffffff16021790555050565b8173ffffffffffffffffffffffffffffffffffffffff166127dd826113f3565b73ffffffffffffffffffffffffffffffffffffffff161415156127ff57600080fd5b6128526001600360008573ffffffffffffffffffffffffffffffffffffffff1673ffffffffffffffffffffffffffffffffffffffff168152602001908152602001600020546128ec90919063ffffffff16565b600360008473ffffffffffffffffffffffffffffffffffffffff1673ffffffffffffffffffffffffffffffffffffffff1681526020019081526020016000208190555060006001600083815260200190815260200160002060006101000a81548173ffffffffffffffffffffffffffffffffffffffff021916908373ffffffffffffffffffffffffffffffffffffffff1602179055505050565b6000808383111515156128fe57600080fd5b82840390508091505092915050565b600073ffffffffffffffffffffffffffffffffffffffff166001600083815260200190815260200160002060009054906101000a900473ffffffffffffffffffffffffffffffffffffffff1673ffffffffffffffffffffffffffffffffffffffff1614151561297b57600080fd5b816001600083815260200190815260200160002060006101000a81548173ffffffffffffffffffffffffffffffffffffffff021916908373ffffffffffffffffffffffffffffffffffffffff160217905550612a206001600360008573ffffffffffffffffffffffffffffffffffffffff1673ffffffffffffffffffffffffffffffffffffffff16815260200190815260200160002054612d6690919063ffffffff16565b600360008473ffffffffffffffffffffffffffffffffffffffff1673ffffffffffffffffffffffffffffffffffffffff168152602001908152602001600020819055505050565b600073ffffffffffffffffffffffffffffffffffffffff168273ffffffffffffffffffffffffffffffffffffffff1614151515612aa357600080fd5b612aad82826121ca565b808273ffffffffffffffffffffffffffffffffffffffff16600073ffffffffffffffffffffffffffffffffffffffff167fddf252ad1be2c89b69c2b068fc378daa952ba7f163c4a11628f55a4df523b3ef60405160405180910390a45050565b6000806000612b1c8585612d87565b60086000858152602001908152602001600020549250612b4b60016007805490506128ec90919063ffffffff16565b9150600782815481101515612b5c57fe5b9060005260206000200154905080600784815481101515612b7957fe5b90600052602060002001819055506000600783815481101515612b9857fe5b90600052602060002001819055506007805480919060019003612bbb9190612e7b565b50600060086000868152602001908152602001600020819055508260086000838152602001908152602001600020819055505050505050565b600073ffffffffffffffffffffffffffffffffffffffff168173ffffffffffffffffffffffffffffffffffffffff1614151515612c3057600080fd5b612c3a828261240b565b151515612c4657600080fd5b60018260000160008373ffffffffffffffffffffffffffffffffffffffff1673ffffffffffffffffffffffffffffffffffffffff16815260200190815260200160002060006101000a81548160ff0219169083151502179055505050565b600073ffffffffffffffffffffffffffffffffffffffff168173ffffffffffffffffffffffffffffffffffffffff1614151515612ce057600080fd5b612cea828261240b565b1515612cf557600080fd5b60008260000160008373ffffffffffffffffffffffffffffffffffffffff1673ffffffffffffffffffffffffffffffffffffffff16815260200190815260200160002060006101000a81548160ff0219169083151502179055505050565b600080823b905060008111915050919050565b6000808284019050838110151515612d7d57600080fd5b8091505092915050565b612d918282611f0b565b612d9b828261200e565b80600073ffffffffffffffffffffffffffffffffffffffff168373ffffffffffffffffffffffffffffffffffffffff167fddf252ad1be2c89b69c2b068fc378daa952ba7f163c4a11628f55a4df523b3ef60405160405180910390a45050565b828054600181600116156101000203166002900490600052602060002090601f016020900481019282601f10612e3c57805160ff1916838001178555612e6a565b82800160010185558215612e6a579182015b82811115612e69578251825591602001919060010190612e4e565b5b509050612e779190612eef565b5090565b815481835581811115612ea257818360005260206000209182019101612ea19190612eef565b5b505050565b50805460018160011615610100020316600290046000825580601f10612ecd5750612eec565b601f016020900490600052602060002090810190612eeb9190612eef565b5b50565b612f1191905b80821115612f0d576000816000905550600101612ef5565b5090565b905600a165627a7a72305820257c3ec12525da0d67233f04b41266543465e20b856e4bbe28702703bf494d110029",
  "source": "pragma solidity ^0.4.24;\n\nimport \"../node_modules/openzeppelin-solidity/contracts/token/ERC721/ERC721Full.sol\";\nimport \"../node_modules/openzeppelin-solidity/contracts/token/ERC721/ERC721Mintable.sol\";\nimport \"../node_modules/openzeppelin-solidity/contracts/token/ERC721/ERC721MetadataMintable.sol\";\nimport \"../node_modules/openzeppelin-solidity/contracts/token/ERC721/ERC721Burnable.sol\";\nimport \"../node_modules/openzeppelin-solidity/contracts/ownership/Ownable.sol\";\n\n\ncontract CryptoLand\nis ERC721Full, ERC721Mintable, ERC721MetadataMintable, ERC721Burnable, Ownable {\n\n  event MintManyToken(\n    address indexed to,\n    uint256 howMany,\n    uint256 tokenIdFrom,\n    uint256 tokenIdTo\n  );\n\n  constructor()\n    ERC721Mintable()\n    ERC721Full(\"CryptoLand.gg\", \"CL\")\n    public\n  {\n\n\n  }\n\n\n  function mintManyWithTokenUri(\n    address to,\n    uint256 howMany,\n    string tokenURI\n  )\n    public\n    onlyMinter\n    returns (bool)\n  {\n    uint256 totalNum = totalSupply();\n\n    for (uint tokenId = totalNum; tokenId < (howMany + totalNum); tokenId++) {\n      _mint(to, tokenId);\n      _setTokenURI(tokenId, concat(tokenURI, uintToString(tokenId)));\n    }\n\n    emit MintManyToken(to, howMany, totalNum, tokenId);\n\n    return true;\n  }\n\n  function concat(string _a, string _b) constant returns (string){\n    bytes memory bytes_a = bytes(_a);\n    bytes memory bytes_b = bytes(_b);\n    string memory length_ab = new string(bytes_a.length + bytes_b.length);\n    bytes memory bytes_c = bytes(length_ab);\n    uint k = 0;\n    for (uint i = 0; i < bytes_a.length; i++) bytes_c[k++] = bytes_a[i];\n    for (i = 0; i < bytes_b.length; i++) bytes_c[k++] = bytes_b[i];\n    return string(bytes_c);\n  }\n\n  function uintToString(uint v) constant returns (string) {\n    uint maxlength = 100;\n    bytes memory reversed = new bytes(maxlength);\n    uint i = 0;\n    while (v != 0) {\n      uint remainder = v % 10;\n      v = v / 10;\n      reversed[i++] = byte(48 + remainder);\n    }\n    bytes memory s = new bytes(i + 1);\n    for (uint j = 0; j <= i; j++) {\n      s[j] = reversed[i - j];\n    }\n    return string(s);\n  }\n\n  function setTokenURI(uint256 tokenId, string uri) public\n  onlyMinter\n  returns (bool) {\n    _setTokenURI(tokenId, uri);\n\n    return true;\n  }\n}",
  "sourcePath": "/Users/Keki/Cryptoland/Cryptoland/contracts/Cryptoland.sol",
  "compiler": {
    "name": "solc",
    "version": "0.4.24+commit.e67f0147.Emscripten.clang"
  },
  "schemaVersion": "2.0.1",
  "updatedAt": "2018-11-06T18:46:23.886Z"
}